{
  "contractName": "Escrow",
  "abi": [
    {
      "inputs": [
        {
          "internalType": "address payable",
          "name": "_exporter",
          "type": "address"
        },
        {
          "internalType": "address payable",
          "name": "_carrier",
          "type": "address"
        },
        {
          "internalType": "uint256",
          "name": "_value",
          "type": "uint256"
        }
      ],
      "stateMutability": "nonpayable",
      "type": "constructor"
    },
    {
      "anonymous": false,
      "inputs": [
        {
          "indexed": true,
          "internalType": "address",
          "name": "_importer",
          "type": "address"
        },
        {
          "indexed": false,
          "internalType": "uint256",
          "name": "_weiAmount",
          "type": "uint256"
        },
        {
          "indexed": true,
          "internalType": "address",
          "name": "_for",
          "type": "address"
        }
      ],
      "name": "Deposited",
      "type": "event"
    },
    {
      "anonymous": false,
      "inputs": [
        {
          "indexed": true,
          "internalType": "address",
          "name": "_importer",
          "type": "address"
        },
        {
          "indexed": true,
          "internalType": "address",
          "name": "_exporter",
          "type": "address"
        },
        {
          "indexed": true,
          "internalType": "address",
          "name": "_carrier",
          "type": "address"
        },
        {
          "indexed": false,
          "internalType": "uint256",
          "name": "_value",
          "type": "uint256"
        }
      ],
      "name": "EscrowCreated",
      "type": "event"
    },
    {
      "anonymous": false,
      "inputs": [
        {
          "indexed": true,
          "internalType": "address",
          "name": "_from",
          "type": "address"
        },
        {
          "indexed": true,
          "internalType": "address",
          "name": "_to",
          "type": "address"
        }
      ],
      "name": "Handover",
      "type": "event"
    },
    {
      "anonymous": false,
      "inputs": [
        {
          "indexed": true,
          "internalType": "address",
          "name": "_withdrawer",
          "type": "address"
        },
        {
          "indexed": false,
          "internalType": "uint256",
          "name": "_weiAmount",
          "type": "uint256"
        }
      ],
      "name": "Withdrawn",
      "type": "event"
    },
    {
      "inputs": [],
      "name": "carrier",
      "outputs": [
        {
          "internalType": "address",
          "name": "",
          "type": "address"
        }
      ],
      "stateMutability": "view",
      "type": "function",
      "constant": true
    },
    {
      "inputs": [
        {
          "internalType": "address",
          "name": "",
          "type": "address"
        }
      ],
      "name": "deposits",
      "outputs": [
        {
          "internalType": "uint256",
          "name": "",
          "type": "uint256"
        }
      ],
      "stateMutability": "view",
      "type": "function",
      "constant": true
    },
    {
      "inputs": [],
      "name": "exporter",
      "outputs": [
        {
          "internalType": "address payable",
          "name": "",
          "type": "address"
        }
      ],
      "stateMutability": "view",
      "type": "function",
      "constant": true
    },
    {
      "inputs": [],
      "name": "importer",
      "outputs": [
        {
          "internalType": "address payable",
          "name": "",
          "type": "address"
        }
      ],
      "stateMutability": "view",
      "type": "function",
      "constant": true
    },
    {
      "inputs": [],
      "name": "owner",
      "outputs": [
        {
          "internalType": "address payable",
          "name": "",
          "type": "address"
        }
      ],
      "stateMutability": "view",
      "type": "function",
      "constant": true
    },
    {
      "inputs": [
        {
          "internalType": "address",
          "name": "",
          "type": "address"
        }
      ],
      "name": "states",
      "outputs": [
        {
          "internalType": "enum Escrow.Status",
          "name": "",
          "type": "uint8"
        }
      ],
      "stateMutability": "view",
      "type": "function",
      "constant": true
    },
    {
      "inputs": [],
      "name": "status",
      "outputs": [
        {
          "internalType": "enum Escrow.Status",
          "name": "",
          "type": "uint8"
        }
      ],
      "stateMutability": "view",
      "type": "function",
      "constant": true
    },
    {
      "inputs": [],
      "name": "value",
      "outputs": [
        {
          "internalType": "uint256",
          "name": "",
          "type": "uint256"
        }
      ],
      "stateMutability": "view",
      "type": "function",
      "constant": true
    },
    {
      "inputs": [
        {
          "internalType": "address",
          "name": "_payee",
          "type": "address"
        }
      ],
      "name": "depositsOf",
      "outputs": [
        {
          "internalType": "uint256",
          "name": "",
          "type": "uint256"
        }
      ],
      "stateMutability": "view",
      "type": "function",
      "constant": true
    },
    {
      "inputs": [
        {
          "internalType": "address",
          "name": "_exporter",
          "type": "address"
        }
      ],
      "name": "deposit",
      "outputs": [],
      "stateMutability": "payable",
      "type": "function",
      "payable": true
    },
    {
      "inputs": [
        {
          "internalType": "address",
          "name": "_exporter",
          "type": "address"
        }
      ],
      "name": "withdrawByImporter",
      "outputs": [],
      "stateMutability": "nonpayable",
      "type": "function"
    },
    {
      "inputs": [],
      "name": "confirmHandover",
      "outputs": [],
      "stateMutability": "nonpayable",
      "type": "function"
    },
    {
      "inputs": [],
      "name": "withdrawByExporter",
      "outputs": [],
      "stateMutability": "nonpayable",
      "type": "function"
    }
  ],
  "bytecode": "0x60806040526005805461ff001916905534801561001b57600080fd5b50604051610bdf380380610bdf83398101604081905261003a91610180565b6001600160a01b0382166100875760405162461bcd60e51b815260206004820152600f60248201526e43617272696572206d697373696e6760881b60448201526064015b60405180910390fd5b6001600160a01b0383166100d05760405162461bcd60e51b815260206004820152601060248201526f4578706f72746572206d697373696e6760801b604482015260640161007e565b60008054336001600160a01b03199182168117909255600180548216831790556002805482166001600160a01b038781169182179092556003805490931691861691821790925560048490556005805460ff191690556040518481529092907fd99c67ae0185d6b0a36717d67d259f252914f7955744e4d81a91685ff480896d9060200160405180910390a45050506101bc565b80516001600160a01b038116811461017b57600080fd5b919050565b60008060006060848603121561019557600080fd5b61019e84610164565b92506101ac60208501610164565b9150604084015190509250925092565b610a14806101cb6000396000f3fe6080604052600436106100c25760003560e01c8063629323011161007f578063e3a9db1a11610059578063e3a9db1a1461021a578063f12c708614610250578063f340fa0114610265578063fc7e286d1461027857600080fd5b806362932301146101ba5780638da5cb5b146101da578063d9b8671e146101fa57600080fd5b806302a22337146100c75780630ce3b80a1461010d578063200d2ed2146101245780632bdc32ff1461013e5780633fa4f245146101765780634bbbe0cc1461019a575b600080fd5b3480156100d357600080fd5b506100f76100e236600461094a565b60076020526000908152604090205460ff1681565b6040516101049190610990565b60405180910390f35b34801561011957600080fd5b506101226102a5565b005b34801561013057600080fd5b506005546100f79060ff1681565b34801561014a57600080fd5b5060035461015e906001600160a01b031681565b6040516001600160a01b039091168152602001610104565b34801561018257600080fd5b5061018c60045481565b604051908152602001610104565b3480156101a657600080fd5b5060025461015e906001600160a01b031681565b3480156101c657600080fd5b5060015461015e906001600160a01b031681565b3480156101e657600080fd5b5060005461015e906001600160a01b031681565b34801561020657600080fd5b5061012261021536600461094a565b610451565b34801561022657600080fd5b5061018c61023536600461094a565b6001600160a01b031660009081526006602052604090205490565b34801561025c57600080fd5b50610122610647565b61012261027336600461094a565b610728565b34801561028457600080fd5b5061018c61029336600461094a565b60066020526000908152604090205481565b6002546001600160a01b031633146103045760405162461bcd60e51b815260206004820152601860248201527f596f7520617265206e6f7420746865204578706f72746572000000000000000060448201526064015b60405180910390fd5b60055460029060ff168181111561031d5761031d61097a565b81600281111561032f5761032f61097a565b1461033957600080fd5b600260055460ff1660028111156103525761035261097a565b146103c55760405162461bcd60e51b815260206004820152603860248201527f5468652070726f6475637420686173206e6f74206265656e2068616e6465642060448201527f6f76657220746f207468652043617272696572207965742e000000000000000060648201526084016102fb565b600280546001600160a01b039081166000908152600660205260408082208054908390559354905192169183156108fc0291849190818181858888f19350505050158015610417573d6000803e3d6000fd5b5060405181815233907f7084f5476618d8e60b11ef0d7d3f06914655adb8793e28ff7f018d4c76d505d59060200160405180910390a25050565b6001546001600160a01b031633146104a65760405162461bcd60e51b81526020600482015260186024820152772cb7ba9030b932903737ba103a34329024b6b837b93a32b960411b60448201526064016102fb565b60055460019060ff1660028111156104c0576104c061097a565b8160028111156104d2576104d261097a565b146104dc57600080fd5b600060055460ff1660028111156104f5576104f561097a565b146105995760405162461bcd60e51b815260206004820152606260248201527f50524f4455435420414c524541445920534849505045443a20596f752063616e60448201527f6e6f7420776974686472617720796f7572206d6f6e657920616674657220746860648201527f652070726f6475637420686173206265656e207368697070656420616c726561608482015261647960f01b60a482015260c4016102fb565b6001600160a01b038083166000908152600660205260408082205460015491519093919091169183156108fc02918491818181858888f193505050501580156105e6573d6000803e3d6000fd5b506001600160a01b0383166000908152600660209081526040808320929092556005805460ff19169055905182815233917f7084f5476618d8e60b11ef0d7d3f06914655adb8793e28ff7f018d4c76d505d5910160405180910390a2505050565b6003546001600160a01b031633146106a15760405162461bcd60e51b815260206004820152601760248201527f596f7520617265206e6f7420746865204361727269657200000000000000000060448201526064016102fb565b60055460019060ff1660028111156106bb576106bb61097a565b8160028111156106cd576106cd61097a565b146106d757600080fd5b6005805460ff1916600290811790915560015490546040516001600160a01b0392831692909116907f3a9b8ac65cf75985be9cace564df0616f96365c8a712d4fcb0d4dd0d3e6aadb790600090a350565b6001546001600160a01b0316331461077d5760405162461bcd60e51b81526020600482015260186024820152772cb7ba9030b932903737ba103a34329024b6b837b93a32b960411b60448201526064016102fb565b60055460009060ff1660028111156107975761079761097a565b8160028111156107a9576107a961097a565b146107b357600080fd5b600034116108175760405162461bcd60e51b815260206004820152602b60248201527f4e4f2045544845522053454e443a20796f7520646964206e6f74206465706f7360448201526a697420616e797468696e6760a81b60648201526084016102fb565b60045434146108bf5760405162461bcd60e51b815260206004820152606260248201527f57524f4e472056414c55452053454e443a20746865207472616e73666572656460448201527f204554482076616c756520646f6573206e6f74206d617463682074686520616d60648201527f6d6f756e742070726576696f75736c7920646566696e656420696e20746865206084820152614c4360f01b60a482015260c4016102fb565b6001600160a01b03821660009081526006602052604090205434906108e59082906109b8565b6001600160a01b038416600081815260066020908152604091829020939093556005805460ff1916600117905551348152909133917fb4e1304f97b5093610f51b33ddab6622388422e2dac138b0d32f93dcfbd39edf910160405180910390a3505050565b60006020828403121561095c57600080fd5b81356001600160a01b038116811461097357600080fd5b9392505050565b634e487b7160e01b600052602160045260246000fd5b60208101600383106109b257634e487b7160e01b600052602160045260246000fd5b91905290565b600082198211156109d957634e487b7160e01b600052601160045260246000fd5b50019056fea26469706673582212203e2baa4d21206442790a6674691ebe0dee7c892ee285a65a8f3d6a6b99b4a53d64736f6c634300080a0033",
  "immutableReferences": {},
  "source": "//SPDX-License-Identifier: UNLICENSED\r\npragma solidity ^0.8.10;\r\n\r\ncontract Escrow{\r\n    \r\n    \r\n    /*  \r\n        We assume the importer always needs to initialize and deposit the amount first\r\n        Is the only person who really can use the ESCROW account\r\n    */\r\n    \r\n    address payable public owner;\r\n    address payable public importer; \r\n    address payable public exporter;\r\n    address public carrier;\r\n    uint public value;\r\n    Status public status;\r\n    \r\n    bool isTransfered = false;\r\n\r\n    /// @dev Status is used to change between \r\n    enum Status {\r\n      waitingForDeposit, waitingForHandover, completed\r\n    }\r\n    \r\n    /// @dev questionable if a mapping is needed or indeed if a mapping with a struct might be used to avoid duplicate addresses with multiple values\r\n    /// this would lead to the need for an extra mechanism to check for a certain set of value that might be released due to a certain status (variable)\r\n\r\n    /* \r\n      E.g.  (uint)   =>    struct balance()\r\n            (LC.id)  =>    (address payee, int)\r\n    */ \r\n    mapping(address => uint256) public deposits; \r\n    mapping(address => Status) public states; // Unused so far. potentially needs to include more differentiated logic, if multiple payments shall be managed by this escrow.\r\n\r\n    /// @notice Events help to search for certain happenings \r\n    /// @dev [ ] add details\r\n    event EscrowCreated(address indexed _importer, address indexed _exporter, address indexed _carrier, uint _value);\r\n    event Deposited(address indexed _importer, uint256 _weiAmount, address indexed _for);\r\n    event Handover(address indexed _from, address indexed _to);\r\n    event Withdrawn(address indexed _withdrawer, uint256 _weiAmount);\r\n\r\n    modifier requireState(Status _status){\r\n      require(_status == status);\r\n      _;\r\n    }\r\n\r\n    modifier onlyImporter(){\r\n        require(importer == msg.sender, \"You are not the Importer\");\r\n        _;\r\n    }\r\n\r\n    modifier onlyExporter(){\r\n        require(exporter == msg.sender, \"You are not the Exporter\");\r\n        _;\r\n    }\r\n    \r\n    modifier onlyCarrier(){\r\n      require(carrier == msg.sender, \"You are not the Carrier\");\r\n      _;\r\n    }\r\n\r\n    function depositsOf(address _payee) public view returns (uint256) {\r\n      return deposits[_payee];\r\n    }\r\n\r\n    /// @notice Creates Escrow Contract\r\n    /// @dev constructor shall be called from the LC contract to pass in the previously defined parameters\r\n    /// @param _carrier is the company address being used to identify the transport service provider\r\n    /// @param _exporter is the company address of the exporter\r\n    /// @param _value is value needed to enable the LC transaction\r\n    /// @notice Assumption: importer is owner of the Escrow account, \r\n    /// @dev Assumption might be changed in later version into LcFactory \r\n    constructor (address payable _exporter, address payable _carrier, uint256 _value) {\r\n        require(_carrier != address(0), \"Carrier missing\");\r\n        require(_exporter != address(0), \"Exporter missing\");\r\n        owner = payable(msg.sender); //we assume the impoert is the person calling\r\n        importer = payable(msg.sender);\r\n        exporter = _exporter;\r\n        carrier = _carrier;\r\n        value = _value;\r\n        status = Status.waitingForDeposit;\r\n        emit EscrowCreated(msg.sender, _exporter, _carrier, _value);\r\n    }\r\n    \r\n    /// @notice Explain to an end user what this does\r\n    /// @dev Explain to a developer any extra details\r\n    /// @param _exporter a parameter just like in doxygen (must be followed by parameter name)\r\n    function deposit(address _exporter) public onlyImporter requireState(Status.waitingForDeposit) payable {\r\n        require(msg.value > 0, \"NO ETHER SEND: you did not deposit anything\");\r\n        require(msg.value == value, \"WRONG VALUE SEND: the transfered ETH value does not match the ammount previously defined in the LC\");\r\n        uint256 amount = msg.value;\r\n        deposits[_exporter] = deposits[_exporter] + amount;\r\n        status = Status.waitingForHandover;\r\n        emit Deposited(msg.sender, msg.value, _exporter);\r\n    }\r\n    \r\n    function withdrawByImporter(address _exporter) public onlyImporter requireState(Status.waitingForHandover){\r\n        require(status == Status.waitingForDeposit, \"PRODUCT ALREADY SHIPPED: You cannot withdraw your money after the product has been shipped already\");\r\n        uint _payment = deposits[_exporter];\r\n        importer.transfer(_payment);\r\n        deposits[_exporter] = 0;\r\n        status = Status.waitingForDeposit;\r\n        emit Withdrawn(msg.sender, _payment);\r\n    }\r\n    \r\n    /// @notice Carrier confirms the reception of the underlying asset and its direct forwarding to the importr\r\n    /// @dev The automated transfer of money might be included here, but is left out as costs for the carrier shall be minimal\r\n    function confirmHandover() public onlyCarrier requireState(Status.waitingForHandover){\r\n        status = Status.completed;\r\n        emit Handover(exporter, importer);\r\n    }\r\n\r\n\r\n    /// @notice After the handover the exporter fulfilled its duty so that it is able to withdraw his funds\r\n    /// @dev After transaction is performed, this Escrow Contract might be \r\n    /// @notice !!! Additional feature: What happens if we manage multiple escrow positions within the contract? That might lead to multiple positions of an exporter. How to solve that issue?\r\n    /// @dev After transaction is performed, this Escrow Contract might be \r\n    function withdrawByExporter() public onlyExporter requireState(Status.completed){\r\n        require(status == Status.completed, \"The product has not been handed over to the Carrier yet.\");\r\n        uint256 _payment = deposits[exporter]; \r\n        deposits[exporter] = 0;\r\n        exporter.transfer(_payment);\r\n        emit Withdrawn(msg.sender, _payment);\r\n        //destroySmartContract(owner); // Here might be a function to selfdestruct this contract. Just used if we want to use this contract just for one transaction\r\n    }\r\n\r\n\r\n    /// @notice Destroys the Escrow Account\r\n    /// @dev is for optional usage; depends on withdrawByExporter; might be outsourced into Helpers.sol\r\n    /// @param _to defines the receiver of residual funds\r\n    function destroySmartContract(address payable _to) private {\r\n      // might need to inherit from Ownable so that it can be managed by a LcFactory \r\n      require(msg.sender == owner, \"You are not the owner\");\r\n      selfdestruct(_to);\r\n    }\r\n}",
  "sourcePath": "C:\\Projects\\woly\\contracts\\Escrow.sol",
  "compiler": {
    "name": "solc",
    "version": "0.8.10+commit.fc410830.Emscripten.clang"
  },
  "schemaVersion": "3.4.2",
  "updatedAt": "2021-11-23T19:50:08.003Z",
  "networkType": "ethereum",
  "devdoc": {
    "events": {
      "EscrowCreated(address,address,address,uint256)": {
        "details": "[ ] add details"
      }
    },
    "kind": "dev",
    "methods": {
      "confirmHandover()": {
        "details": "The automated transfer of money might be included here, but is left out as costs for the carrier shall be minimal"
      },
      "constructor": {
        "details": "constructor shall be called from the LC contract to pass in the previously defined parametersAssumption might be changed in later version into LcFactory ",
        "params": {
          "_carrier": "is the company address being used to identify the transport service provider",
          "_exporter": "is the company address of the exporter",
          "_value": "is value needed to enable the LC transaction"
        }
      },
      "deposit(address)": {
        "details": "Explain to a developer any extra details",
        "params": {
          "_exporter": "a parameter just like in doxygen (must be followed by parameter name)"
        }
      },
      "withdrawByExporter()": {
        "details": "After transaction is performed, this Escrow Contract might be After transaction is performed, this Escrow Contract might be "
      }
    },
    "stateVariables": {
      "deposits": {
        "details": "questionable if a mapping is needed or indeed if a mapping with a struct might be used to avoid duplicate addresses with multiple values this would lead to the need for an extra mechanism to check for a certain set of value that might be released due to a certain status (variable)"
      }
    },
    "version": 1
  },
  "userdoc": {
    "events": {
      "EscrowCreated(address,address,address,uint256)": {
        "notice": "Events help to search for certain happenings "
      }
    },
    "kind": "user",
    "methods": {
      "confirmHandover()": {
        "notice": "Carrier confirms the reception of the underlying asset and its direct forwarding to the importr"
      },
      "constructor": {
        "notice": "Creates Escrow ContractAssumption: importer is owner of the Escrow account, "
      },
      "deposit(address)": {
        "notice": "Explain to an end user what this does"
      },
      "withdrawByExporter()": {
        "notice": "After the handover the exporter fulfilled its duty so that it is able to withdraw his funds!!! Additional feature: What happens if we manage multiple escrow positions within the contract? That might lead to multiple positions of an exporter. How to solve that issue?"
      }
    },
    "version": 1
  }
}