{
  "contractName": "Escrow",
  "abi": [
    {
      "inputs": [
        {
          "internalType": "address payable",
          "name": "_carrier",
          "type": "address"
        },
        {
          "internalType": "address payable",
          "name": "_exporter",
          "type": "address"
        }
      ],
      "stateMutability": "nonpayable",
      "type": "constructor"
    },
    {
      "inputs": [
        {
          "internalType": "address",
          "name": "",
          "type": "address"
        }
      ],
      "name": "deposits",
      "outputs": [
        {
          "internalType": "uint256",
          "name": "",
          "type": "uint256"
        }
      ],
      "stateMutability": "view",
      "type": "function"
    },
    {
      "inputs": [
        {
          "internalType": "address",
          "name": "_exporter",
          "type": "address"
        }
      ],
      "name": "deposit",
      "outputs": [],
      "stateMutability": "payable",
      "type": "function"
    },
    {
      "inputs": [],
      "name": "withdrawToImporter",
      "outputs": [],
      "stateMutability": "nonpayable",
      "type": "function"
    },
    {
      "inputs": [],
      "name": "withdrawToExporter",
      "outputs": [],
      "stateMutability": "nonpayable",
      "type": "function"
    },
    {
      "inputs": [],
      "name": "setIsTransfered",
      "outputs": [],
      "stateMutability": "nonpayable",
      "type": "function"
    }
  ],
  "bytecode": "0x60806040526002805460ff60a01b1916905534801561001d57600080fd5b506040516106dc3803806106dc83398101604081905261003c9161012a565b6001600160a01b0382166100895760405162461bcd60e51b815260206004820152600f60248201526e43617272696572206d697373696e6760881b60448201526064015b60405180910390fd5b6001600160a01b0381166100d25760405162461bcd60e51b815260206004820152601060248201526f4578706f72746572206d697373696e6760801b6044820152606401610080565b600080546001600160a01b03199081163317909155600280546001600160a01b039485169083161790556001805492909316911617905561015d565b80516001600160a01b038116811461012557600080fd5b919050565b6000806040838503121561013d57600080fd5b6101468361010e565b91506101546020840161010e565b90509250929050565b6105708061016c6000396000f3fe60806040526004361061004a5760003560e01c80634bb21f551461004f57806386f2dbc314610066578063d4b5c2111461007b578063f340fa0114610090578063fc7e286d146100a3575b600080fd5b34801561005b57600080fd5b506100646100e2565b005b34801561007257600080fd5b50610064610236565b34801561008757600080fd5b50610064610361565b61006461009e3660046104e4565b61043c565b3480156100af57600080fd5b506100d06100be3660046104e4565b60036020526000908152604090205481565b60405190815260200160405180910390f35b6000546001600160a01b0316331461013c5760405162461bcd60e51b81526020600482015260186024820152772cb7ba9030b932903737ba103a34329024b6b837b93a32b960411b60448201526064015b60405180910390fd5b600254600160a01b900460ff16156101ce5760405162461bcd60e51b815260206004820152604960248201527f596f752063616e6e6f7420776974686472617720796f7572206d6f6e6579206160448201527f66746572207468652070726f6475637420686173206265656e207368697070656064820152686420616c726561647960b81b608482015260a401610133565b6001546001600160a01b03166101e357600080fd5b6001546001600160a01b0390811660009081526003602052604080822054825491519093919091169183156108fc02918491818181858888f19350505050158015610232573d6000803e3d6000fd5b5050565b6001546001600160a01b031633146102905760405162461bcd60e51b815260206004820152601860248201527f596f7520617265206e6f7420746865204578706f7274657200000000000000006044820152606401610133565b600254600160a01b900460ff1661030f5760405162461bcd60e51b815260206004820152603860248201527f5468652070726f6475637420686173206e6f74206265656e2068616e6465642060448201527f6f76657220746f207468652043617272696572207965742e00000000000000006064820152608401610133565b600180546001600160a01b039081166000908152600360205260408082208054908390559354905192169183156108fc0291849190818181858888f19350505050158015610232573d6000803e3d6000fd5b6002546001600160a01b031633146103bb5760405162461bcd60e51b815260206004820152601760248201527f596f7520617265206e6f742074686520436172726965720000000000000000006044820152606401610133565b600254600160a01b900460ff16156104275760405162461bcd60e51b815260206004820152602960248201527f5468652070726f6475637420616c7265616479206973206265696e672068616e6044820152683232b21037bb32b91760b91b6064820152608401610133565b6002805460ff60a01b1916600160a01b179055565b6000546001600160a01b031633146104915760405162461bcd60e51b81526020600482015260186024820152772cb7ba9030b932903737ba103a34329024b6b837b93a32b960411b6044820152606401610133565b6000341161049e57600080fd5b6001600160a01b03811660009081526003602052604090205434906104c4908290610514565b6001600160a01b0390921660009081526003602052604090209190915550565b6000602082840312156104f657600080fd5b81356001600160a01b038116811461050d57600080fd5b9392505050565b6000821982111561053557634e487b7160e01b600052601160045260246000fd5b50019056fea26469706673582212204fa2b7941c94da2360d94463424c0eecbd480467e74ec5499b768912c807dd2164736f6c634300080a0033",
  "immutableReferences": {},
  "source": "//SPDX-License-Identifier: UNLICENSED\r\npragma solidity ^0.8.10;\r\n\r\ncontract Escrow{\r\n    \r\n    \r\n    /*  \r\n        We assume the importer always needs to initialize and deposit the amount first\r\n        Is the only person who really can use the ESCROW account\r\n    */\r\n    \r\n    address payable importer; \r\n    address payable exporter;\r\n    address carrier;\r\n    \r\n    bool isTransfered = false;\r\n    \r\n    mapping(address => uint256) public deposits;\r\n    \r\n    modifier onlyImporter(){\r\n        require(importer == msg.sender, \"You are not the Importer\");\r\n        _;\r\n    }\r\n\r\n    modifier onlyExporter(){\r\n        require(exporter == msg.sender, \"You are not the Exporter\");\r\n        _;\r\n    }\r\n    \r\n    modifier onlyCarrier(){\r\n      require(carrier == msg.sender, \"You are not the Carrier\");\r\n      _;\r\n    }\r\n\r\n    \r\n    constructor (address payable _carrier, address payable _exporter) {\r\n        require(_carrier != address(0), \"Carrier missing\");\r\n        require(_exporter != address(0), \"Exporter missing\");\r\n        importer = payable(msg.sender);\r\n        carrier = _carrier;\r\n        exporter = _exporter;\r\n    }\r\n    \r\n    function deposit(address _exporter) public onlyImporter payable {\r\n        require(msg.value > 0);\r\n        uint256 amount = msg.value;\r\n        deposits[_exporter] = deposits[_exporter] + amount;\r\n    }\r\n    \r\n    function withdrawToImporter() public onlyImporter {\r\n        require(!isTransfered, \"You cannot withdraw your money after the product has been shipped already\");\r\n        require(address(exporter) != address(0));\r\n        uint payment = deposits[exporter];\r\n        deposits[exporter];\r\n        importer.transfer(payment);\r\n    }\r\n    \r\n    function withdrawToExporter() public onlyExporter{\r\n        require(isTransfered, \"The product has not been handed over to the Carrier yet.\");\r\n        uint256 payment = deposits[exporter];\r\n        deposits[exporter] = 0;\r\n        exporter.transfer(payment);\r\n        \r\n    }\r\n    \r\n    function setIsTransfered() public onlyCarrier{\r\n        require(!isTransfered, \"The product already is being handed over.\");\r\n        isTransfered = true;\r\n    }\r\n}",
  "sourcePath": "C:\\Projects\\woly\\contracts\\Escrow.sol",
  "compiler": {
    "name": "solc",
    "version": "0.8.10+commit.fc410830.Emscripten.clang"
  },
  "schemaVersion": "3.4.2",
  "updatedAt": "2021-11-11T21:11:55.605Z",
  "devdoc": {
    "kind": "dev",
    "methods": {},
    "version": 1
  },
  "userdoc": {
    "kind": "user",
    "methods": {},
    "version": 1
  }
}