{
  "contractName": "Escrow",
  "abi": [
    {
      "inputs": [
        {
          "internalType": "address payable",
          "name": "_carrier",
          "type": "address"
        },
        {
          "internalType": "address payable",
          "name": "_exporter",
          "type": "address"
        },
        {
          "internalType": "uint256",
          "name": "_value",
          "type": "uint256"
        }
      ],
      "stateMutability": "nonpayable",
      "type": "constructor"
    },
    {
      "anonymous": false,
      "inputs": [
        {
          "indexed": true,
          "internalType": "address",
          "name": "importer",
          "type": "address"
        },
        {
          "indexed": false,
          "internalType": "uint256",
          "name": "weiAmount",
          "type": "uint256"
        }
      ],
      "name": "Deposited",
      "type": "event"
    },
    {
      "anonymous": false,
      "inputs": [
        {
          "indexed": true,
          "internalType": "address",
          "name": "_importer",
          "type": "address"
        },
        {
          "indexed": true,
          "internalType": "address",
          "name": "_exporter",
          "type": "address"
        },
        {
          "indexed": true,
          "internalType": "address",
          "name": "_carrier",
          "type": "address"
        },
        {
          "indexed": false,
          "internalType": "uint256",
          "name": "_value",
          "type": "uint256"
        }
      ],
      "name": "EscrowCreated",
      "type": "event"
    },
    {
      "anonymous": false,
      "inputs": [
        {
          "indexed": true,
          "internalType": "address",
          "name": "_from",
          "type": "address"
        },
        {
          "indexed": true,
          "internalType": "address",
          "name": "_to",
          "type": "address"
        }
      ],
      "name": "Handover",
      "type": "event"
    },
    {
      "anonymous": false,
      "inputs": [
        {
          "indexed": true,
          "internalType": "address",
          "name": "withdrawer",
          "type": "address"
        },
        {
          "indexed": false,
          "internalType": "uint256",
          "name": "weiAmount",
          "type": "uint256"
        }
      ],
      "name": "Withdrawn",
      "type": "event"
    },
    {
      "inputs": [
        {
          "internalType": "address",
          "name": "",
          "type": "address"
        }
      ],
      "name": "deposits",
      "outputs": [
        {
          "internalType": "uint256",
          "name": "",
          "type": "uint256"
        }
      ],
      "stateMutability": "view",
      "type": "function"
    },
    {
      "inputs": [
        {
          "internalType": "address",
          "name": "",
          "type": "address"
        }
      ],
      "name": "states",
      "outputs": [
        {
          "internalType": "enum Escrow.State",
          "name": "",
          "type": "uint8"
        }
      ],
      "stateMutability": "view",
      "type": "function"
    },
    {
      "inputs": [
        {
          "internalType": "address",
          "name": "_payee",
          "type": "address"
        }
      ],
      "name": "depositsOf",
      "outputs": [
        {
          "internalType": "uint256",
          "name": "",
          "type": "uint256"
        }
      ],
      "stateMutability": "view",
      "type": "function"
    },
    {
      "inputs": [
        {
          "internalType": "address",
          "name": "_exporter",
          "type": "address"
        }
      ],
      "name": "deposit",
      "outputs": [],
      "stateMutability": "payable",
      "type": "function"
    },
    {
      "inputs": [
        {
          "internalType": "address",
          "name": "_exporter",
          "type": "address"
        }
      ],
      "name": "withdrawByImporter",
      "outputs": [],
      "stateMutability": "nonpayable",
      "type": "function"
    },
    {
      "inputs": [],
      "name": "confirmHandover",
      "outputs": [],
      "stateMutability": "nonpayable",
      "type": "function"
    },
    {
      "inputs": [],
      "name": "withdrawByExporter",
      "outputs": [],
      "stateMutability": "nonpayable",
      "type": "function"
    }
  ],
  "bytecode": "0x60806040526005805461ff001916905534801561001b57600080fd5b506040516109ad3803806109ad83398101604081905261003a91610181565b6001600160a01b0383166100875760405162461bcd60e51b815260206004820152600f60248201526e43617272696572206d697373696e6760881b60448201526064015b60405180910390fd5b6001600160a01b0382166100d05760405162461bcd60e51b815260206004820152601060248201526f4578706f72746572206d697373696e6760801b604482015260640161007e565b60008054336001600160a01b03199182168117909255600180548216831790556003805482166001600160a01b038781169182179092556002805490931691861691821790925560048490556005805460ff19169055604051848152919290917fd99c67ae0185d6b0a36717d67d259f252914f7955744e4d81a91685ff480896d9060200160405180910390a45050506101bd565b80516001600160a01b038116811461017c57600080fd5b919050565b60008060006060848603121561019657600080fd5b61019f84610165565b92506101ad60208501610165565b9150604084015190509250925092565b6107e1806101cc6000396000f3fe6080604052600436106100705760003560e01c8063e3a9db1a1161004e578063e3a9db1a146100f2578063f12c708614610136578063f340fa011461014b578063fc7e286d1461015e57600080fd5b806302a22337146100755780630ce3b80a146100bb578063d9b8671e146100d2575b600080fd5b34801561008157600080fd5b506100a5610090366004610717565b60076020526000908152604090205460ff1681565b6040516100b2919061075d565b60405180910390f35b3480156100c757600080fd5b506100d061018b565b005b3480156100de57600080fd5b506100d06100ed366004610717565b610337565b3480156100fe57600080fd5b5061012861010d366004610717565b6001600160a01b031660009081526006602052604090205490565b6040519081526020016100b2565b34801561014257600080fd5b506100d061050f565b6100d0610159366004610717565b6105f0565b34801561016a57600080fd5b50610128610179366004610717565b60066020526000908152604090205481565b6002546001600160a01b031633146101ea5760405162461bcd60e51b815260206004820152601860248201527f596f7520617265206e6f7420746865204578706f72746572000000000000000060448201526064015b60405180910390fd5b60055460029060ff168181111561020357610203610747565b81600281111561021557610215610747565b1461021f57600080fd5b600260055460ff16600281111561023857610238610747565b146102ab5760405162461bcd60e51b815260206004820152603860248201527f5468652070726f6475637420686173206e6f74206265656e2068616e6465642060448201527f6f76657220746f207468652043617272696572207965742e000000000000000060648201526084016101e1565b600280546001600160a01b039081166000908152600660205260408082208054908390559354905192169183156108fc0291849190818181858888f193505050501580156102fd573d6000803e3d6000fd5b5060405181815233907f7084f5476618d8e60b11ef0d7d3f06914655adb8793e28ff7f018d4c76d505d59060200160405180910390a25050565b6001546001600160a01b0316331461038c5760405162461bcd60e51b81526020600482015260186024820152772cb7ba9030b932903737ba103a34329024b6b837b93a32b960411b60448201526064016101e1565b60055460019060ff1660028111156103a6576103a6610747565b8160028111156103b8576103b8610747565b146103c257600080fd5b600060055460ff1660028111156103db576103db610747565b146104605760405162461bcd60e51b815260206004820152604960248201527f596f752063616e6e6f7420776974686472617720796f7572206d6f6e6579206160448201527f66746572207468652070726f6475637420686173206265656e207368697070656064820152686420616c726561647960b81b608482015260a4016101e1565b6001600160a01b038083166000908152600660205260408082205460015491519093919091169183156108fc02918491818181858888f193505050501580156104ad573d6000803e3d6000fd5b506001600160a01b0383166000908152600660209081526040808320929092556005805460ff19169055905182815233917f7084f5476618d8e60b11ef0d7d3f06914655adb8793e28ff7f018d4c76d505d591015b60405180910390a2505050565b6003546001600160a01b031633146105695760405162461bcd60e51b815260206004820152601760248201527f596f7520617265206e6f7420746865204361727269657200000000000000000060448201526064016101e1565b60055460019060ff16600281111561058357610583610747565b81600281111561059557610595610747565b1461059f57600080fd5b6005805460ff1916600290811790915560015490546040516001600160a01b0392831692909116907f3a9b8ac65cf75985be9cace564df0616f96365c8a712d4fcb0d4dd0d3e6aadb790600090a350565b6001546001600160a01b031633146106455760405162461bcd60e51b81526020600482015260186024820152772cb7ba9030b932903737ba103a34329024b6b837b93a32b960411b60448201526064016101e1565b60055460009060ff16600281111561065f5761065f610747565b81600281111561067157610671610747565b1461067b57600080fd5b6000341161068857600080fd5b600454341461069657600080fd5b6001600160a01b03821660009081526006602052604090205434906106bc908290610785565b6001600160a01b038416600090815260066020908152604091829020929092556005805460ff191660011790555134815233917f2da466a7b24304f47e87fa2e1e5a81b9831ce54fec19055ce277ca2f39ba42c49101610502565b60006020828403121561072957600080fd5b81356001600160a01b038116811461074057600080fd5b9392505050565b634e487b7160e01b600052602160045260246000fd5b602081016003831061077f57634e487b7160e01b600052602160045260246000fd5b91905290565b600082198211156107a657634e487b7160e01b600052601160045260246000fd5b50019056fea264697066735822122067db2560ee700ca2e74d9d4b778e73ea6c53f979e706f7716ec980db397ace4d64736f6c634300080a0033",
  "immutableReferences": {},
  "source": "//SPDX-License-Identifier: UNLICENSED\r\npragma solidity ^0.8.10;\r\n\r\ncontract Escrow{\r\n    \r\n    \r\n    /*  \r\n        We assume the importer always needs to initialize and deposit the amount first\r\n        Is the only person who really can use the ESCROW account\r\n    */\r\n    \r\n    address payable owner;\r\n    address payable importer; \r\n    address payable exporter;\r\n    address carrier;\r\n    uint value;\r\n    State state;\r\n    \r\n    bool isTransfered = false;\r\n\r\n    /// @dev State is used to change between \r\n    enum State {\r\n      waitingForDeposit, waitingForHandover, completed\r\n    }\r\n    \r\n    mapping(address => uint256) public deposits; // questionable if a mapping is needed\r\n    mapping(address => State) public states; // Unused so far. potentially needs to include more differentiated logic, if multiple payments shall be managed by this escrow.\r\n\r\n    /// @notice Events help to search for certain happenings \r\n    /// @dev [ ] add details\r\n    event EscrowCreated(address indexed _importer, address indexed _exporter, address indexed _carrier, uint _value);\r\n    event Deposited(address indexed importer, uint256 weiAmount);\r\n    event Handover(address indexed _from, address indexed _to);\r\n    event Withdrawn(address indexed withdrawer, uint256 weiAmount);\r\n\r\n    modifier requireState(State _state){\r\n      require(_state == state);\r\n      _;\r\n    }\r\n\r\n    modifier onlyImporter(){\r\n        require(importer == msg.sender, \"You are not the Importer\");\r\n        _;\r\n    }\r\n\r\n    modifier onlyExporter(){\r\n        require(exporter == msg.sender, \"You are not the Exporter\");\r\n        _;\r\n    }\r\n    \r\n    modifier onlyCarrier(){\r\n      require(carrier == msg.sender, \"You are not the Carrier\");\r\n      _;\r\n    }\r\n\r\n    function depositsOf(address _payee) public view returns (uint256) {\r\n      return deposits[_payee];\r\n    }\r\n\r\n    /// @notice Creates Escrow Contract\r\n    /// @dev constructor shall be called from the LC contract to pass in the previously defined parameters\r\n    /// @param _carrier is the company address being used to identify the transport service provider\r\n    /// @param _exporter is the company address of the exporter\r\n    /// @param _value is value needed to enable the LC transaction\r\n    /// @notice Assumption: importer is owner of the Escrow account, \r\n    /// @dev Assumption might be changed in later version into LcFactory \r\n    constructor (address payable _carrier, address payable _exporter, uint256 _value) {\r\n        require(_carrier != address(0), \"Carrier missing\");\r\n        require(_exporter != address(0), \"Exporter missing\");\r\n        owner = payable(msg.sender); //we assume the impoert is the person calling\r\n        importer = payable(msg.sender);\r\n        carrier = _carrier;\r\n        exporter = _exporter;\r\n        value = _value;\r\n        state = State.waitingForDeposit;\r\n        emit EscrowCreated(msg.sender, _exporter, _carrier, _value);\r\n    }\r\n    \r\n    /// @notice Explain to an end user what this does\r\n    /// @dev Explain to a developer any extra details\r\n    /// @param _exporter a parameter just like in doxygen (must be followed by parameter name)\r\n    function deposit(address _exporter) public onlyImporter requireState(State.waitingForDeposit) payable {\r\n        require(msg.value > 0);\r\n        require(msg.value == value);\r\n        uint256 amount = msg.value;\r\n        deposits[_exporter] = deposits[_exporter] + amount;\r\n        state = State.waitingForHandover;\r\n        emit Deposited(msg.sender, msg.value);\r\n    }\r\n    \r\n    function withdrawByImporter(address _exporter) public onlyImporter requireState(State.waitingForHandover){\r\n        require(state == State.waitingForDeposit, \"You cannot withdraw your money after the product has been shipped already\");\r\n        uint _payment = deposits[_exporter];\r\n        importer.transfer(_payment);\r\n        deposits[_exporter] = 0;\r\n        state = State.waitingForDeposit;\r\n        emit Withdrawn(msg.sender, _payment);\r\n    }\r\n    \r\n    /// @notice Carrier confirms the reception of the underlying asset and its direct forwarding to the importr\r\n    /// @dev The automated transfer of money might be included here, but is left out as costs for the carrier shall be minimal\r\n    function confirmHandover() public onlyCarrier requireState(State.waitingForHandover){\r\n        state = State.completed;\r\n        emit Handover(exporter, importer);\r\n    }\r\n\r\n\r\n    /// @notice After the handover the exporter fulfilled its duty so that it is able to withdraw his funds\r\n    /// @dev After transaction is performed, this Escrow Contract might be \r\n    /// @notice !!! Additional feature: What happens if we manage multiple escrow positions within the contract? That might lead to multiple positions of an exporter. How to solve that issue?\r\n    /// @dev After transaction is performed, this Escrow Contract might be \r\n    function withdrawByExporter() public onlyExporter requireState(State.completed){\r\n        require(state == State.completed, \"The product has not been handed over to the Carrier yet.\");\r\n        uint256 _payment = deposits[exporter]; \r\n        deposits[exporter] = 0;\r\n        exporter.transfer(_payment);\r\n        emit Withdrawn(msg.sender, _payment);\r\n        //destroySmartContract(owner); // Here might be a function to selfdestruct this contract. Just used if we want to use this contract just for one transaction\r\n    }\r\n\r\n\r\n    /// @notice Destroys the Escrow Account\r\n    /// @dev is for optional usage; depends on withdrawByExporter; might be outsourced into Helpers.sol\r\n    /// @param _to defines the receiver of residual funds\r\n    function destroySmartContract(address payable _to) private {\r\n      // might need to inherit from Ownable so that it can be managed by a LcFactory \r\n      require(msg.sender == owner, \"You are not the owner\");\r\n      selfdestruct(_to);\r\n    }\r\n}",
  "sourcePath": "C:\\Projects\\woly\\contracts\\Escrow.sol",
  "compiler": {
    "name": "solc",
    "version": "0.8.10+commit.fc410830.Emscripten.clang"
  },
  "schemaVersion": "3.4.2",
  "updatedAt": "2021-11-15T16:40:35.045Z",
  "devdoc": {
    "events": {
      "EscrowCreated(address,address,address,uint256)": {
        "details": "[ ] add details"
      }
    },
    "kind": "dev",
    "methods": {
      "confirmHandover()": {
        "details": "The automated transfer of money might be included here, but is left out as costs for the carrier shall be minimal"
      },
      "constructor": {
        "details": "constructor shall be called from the LC contract to pass in the previously defined parametersAssumption might be changed in later version into LcFactory ",
        "params": {
          "_carrier": "is the company address being used to identify the transport service provider",
          "_exporter": "is the company address of the exporter",
          "_value": "is value needed to enable the LC transaction"
        }
      },
      "deposit(address)": {
        "details": "Explain to a developer any extra details",
        "params": {
          "_exporter": "a parameter just like in doxygen (must be followed by parameter name)"
        }
      },
      "withdrawByExporter()": {
        "details": "After transaction is performed, this Escrow Contract might be After transaction is performed, this Escrow Contract might be "
      }
    },
    "version": 1
  },
  "userdoc": {
    "events": {
      "EscrowCreated(address,address,address,uint256)": {
        "notice": "Events help to search for certain happenings "
      }
    },
    "kind": "user",
    "methods": {
      "confirmHandover()": {
        "notice": "Carrier confirms the reception of the underlying asset and its direct forwarding to the importr"
      },
      "constructor": {
        "notice": "Creates Escrow ContractAssumption: importer is owner of the Escrow account, "
      },
      "deposit(address)": {
        "notice": "Explain to an end user what this does"
      },
      "withdrawByExporter()": {
        "notice": "After the handover the exporter fulfilled its duty so that it is able to withdraw his funds!!! Additional feature: What happens if we manage multiple escrow positions within the contract? That might lead to multiple positions of an exporter. How to solve that issue?"
      }
    },
    "version": 1
  }
}