{
  "contractName": "Lc",
  "abi": [
    {
      "inputs": [],
      "stateMutability": "nonpayable",
      "type": "constructor"
    },
    {
      "anonymous": false,
      "inputs": [],
      "name": "LcChanged",
      "type": "event"
    },
    {
      "anonymous": false,
      "inputs": [],
      "name": "LcClosed",
      "type": "event"
    },
    {
      "anonymous": false,
      "inputs": [],
      "name": "LcConfirmed",
      "type": "event"
    },
    {
      "anonymous": false,
      "inputs": [],
      "name": "LcOpened",
      "type": "event"
    },
    {
      "inputs": [],
      "name": "carrier",
      "outputs": [
        {
          "internalType": "address",
          "name": "",
          "type": "address"
        }
      ],
      "stateMutability": "view",
      "type": "function",
      "constant": true
    },
    {
      "inputs": [
        {
          "internalType": "uint256",
          "name": "",
          "type": "uint256"
        }
      ],
      "name": "contractOwner",
      "outputs": [
        {
          "internalType": "address",
          "name": "",
          "type": "address"
        }
      ],
      "stateMutability": "view",
      "type": "function",
      "constant": true
    },
    {
      "inputs": [],
      "name": "exporter",
      "outputs": [
        {
          "internalType": "address payable",
          "name": "",
          "type": "address"
        }
      ],
      "stateMutability": "view",
      "type": "function",
      "constant": true
    },
    {
      "inputs": [],
      "name": "exporterAgreed",
      "outputs": [
        {
          "internalType": "bool",
          "name": "",
          "type": "bool"
        }
      ],
      "stateMutability": "view",
      "type": "function",
      "constant": true
    },
    {
      "inputs": [],
      "name": "importer",
      "outputs": [
        {
          "internalType": "address payable",
          "name": "",
          "type": "address"
        }
      ],
      "stateMutability": "view",
      "type": "function",
      "constant": true
    },
    {
      "inputs": [],
      "name": "importerAgreed",
      "outputs": [
        {
          "internalType": "bool",
          "name": "",
          "type": "bool"
        }
      ],
      "stateMutability": "view",
      "type": "function",
      "constant": true
    },
    {
      "inputs": [
        {
          "internalType": "address",
          "name": "",
          "type": "address"
        },
        {
          "internalType": "uint256",
          "name": "",
          "type": "uint256"
        }
      ],
      "name": "ownedContracts",
      "outputs": [
        {
          "internalType": "uint256",
          "name": "",
          "type": "uint256"
        }
      ],
      "stateMutability": "view",
      "type": "function",
      "constant": true
    },
    {
      "inputs": [],
      "name": "status",
      "outputs": [
        {
          "internalType": "enum Lc.Status",
          "name": "",
          "type": "uint8"
        }
      ],
      "stateMutability": "view",
      "type": "function",
      "constant": true
    }
  ],
  "bytecode": "0x60806040526002805461ffff60a81b1916905534801561001e57600080fd5b506276a70061002d814261004a565b600755506002805461ffff60a01b1916600160a81b179055610070565b6000821982111561006b57634e487b7160e01b600052601160045260246000fd5b500190565b61026a8061007f6000396000f3fe608060405234801561001057600080fd5b50600436106100885760003560e01c80635bb3779a1161005b5780635bb3779a14610116578063629323011461013a578063765bc06b1461014d578063a8d094801461016157600080fd5b8063200d2ed21461008d5780632bdc32ff146100b75780633fcc0905146100e25780634bbbe0cc14610103575b600080fd5b6002546100a190600160a01b900460ff1681565b6040516100ae91906101bb565b60405180910390f35b6002546100ca906001600160a01b031681565b6040516001600160a01b0390911681526020016100ae565b6100f56100f03660046101e3565b61018a565b6040519081526020016100ae565b6001546100ca906001600160a01b031681565b60025461012a90600160b01b900460ff1681565b60405190151581526020016100ae565b6000546100ca906001600160a01b031681565b60025461012a90600160a81b900460ff1681565b6100ca61016f36600461021b565b6005602052600090815260409020546001600160a01b031681565b600460205281600052604060002081815481106101a657600080fd5b90600052602060002001600091509150505481565b60208101600483106101dd57634e487b7160e01b600052602160045260246000fd5b91905290565b600080604083850312156101f657600080fd5b82356001600160a01b038116811461020d57600080fd5b946020939093013593505050565b60006020828403121561022d57600080fd5b503591905056fea2646970667358221220195446b67a825f049306d50056ce31ce53416b4bef2a5cdb80a75b5f7449211664736f6c634300080a0033",
  "immutableReferences": {},
  "source": "// SPDX-License-Identifier: UNLICENSED\r\npragma solidity ^0.8.10;\r\n\r\n/// @title Non-fungible Token representing an Lc Contract\r\n/// @author Ndrslmpk\r\n/// @notice Explain to an end user what this does\r\n/// @dev Explain to a developer any extra details\r\ncontract Lc {\r\n\r\n  address payable public importer;\r\n  address payable public exporter;\r\n  address public carrier;\r\n  Status public status;\r\n  bool public importerAgreed = false;\r\n  bool public exporterAgreed = false;\r\n\r\n  mapping (uint => address) numberToOwner;\r\n\r\n  /// @notice Introduces ownership of explicit token ids\r\n  /// @dev Ownership is determined by an array of tokens indexes (tokenIDs)\r\n  mapping (address => uint256[]) public ownedContracts;\r\n\r\n  /// @notice Lookup for tokenOwner\r\n  /// @dev Ownership is determined by an array of tokens indexes (tokenIDs)\r\n  mapping (uint256 => address) public contractOwner;\r\n\r\n/// @notice Enum allows to define certain states of the lc to determine which actions will be allowed and avoided\r\n/// @dev opened is initiated after calling the constructor\r\n/// @dev confirmed is the status after the signing, thus agreeing, of both parties\r\n/// @dev closed is the status after each party got their needed asset (e.g. product and money)\r\n  enum Status {\r\n    opened, changed, confirmed, closed\r\n  }\r\n\r\n  uint256[] internal allContracts;\r\n  uint256 validityTime;\r\n\r\n  event LcOpened();\r\n  event LcChanged();\r\n  event LcConfirmed();\r\n  event LcClosed();\r\n\r\n  ///\r\n  /// Assumptions: Importer is the only party calling the LC constructor\r\n  constructor() {\r\n    uint256 _validityPeriod = 90 days;\r\n    validityTime = block.timestamp + _validityPeriod;\r\n    status = Status.opened;\r\n    importerAgreed = true; //assumption that importer always initializes contract \r\n  }\r\n\r\n  \r\n}",
  "sourcePath": "C:\\Projects\\woly\\contracts\\Lc.sol",
  "compiler": {
    "name": "solc",
    "version": "0.8.10+commit.fc410830.Emscripten.clang"
  },
  "schemaVersion": "3.4.2",
  "updatedAt": "2021-11-23T19:50:08.013Z",
  "networkType": "ethereum",
  "devdoc": {
    "author": "Ndrslmpk",
    "details": "Explain to a developer any extra details",
    "kind": "dev",
    "methods": {},
    "stateVariables": {
      "contractOwner": {
        "details": "Ownership is determined by an array of tokens indexes (tokenIDs)"
      },
      "ownedContracts": {
        "details": "Ownership is determined by an array of tokens indexes (tokenIDs)"
      }
    },
    "title": "Non-fungible Token representing an Lc Contract",
    "version": 1
  },
  "userdoc": {
    "kind": "user",
    "methods": {
      "constructor": {
        "notice": " Assumptions: Importer is the only party calling the LC constructor"
      },
      "contractOwner(uint256)": {
        "notice": "Lookup for tokenOwner"
      },
      "ownedContracts(address,uint256)": {
        "notice": "Introduces ownership of explicit token ids"
      }
    },
    "notice": "Explain to an end user what this does",
    "version": 1
  }
}