{
  "contractName": "OffchainContract",
  "abi": [
    {
      "inputs": [
        {
          "internalType": "bytes32[]",
          "name": "_name",
          "type": "bytes32[]"
        },
        {
          "internalType": "uint256",
          "name": "_value",
          "type": "uint256"
        }
      ],
      "stateMutability": "nonpayable",
      "type": "constructor"
    },
    {
      "anonymous": false,
      "inputs": [
        {
          "indexed": true,
          "internalType": "address",
          "name": "owner",
          "type": "address"
        },
        {
          "indexed": true,
          "internalType": "address",
          "name": "approved",
          "type": "address"
        },
        {
          "indexed": true,
          "internalType": "uint256",
          "name": "tokenId",
          "type": "uint256"
        }
      ],
      "name": "Approval",
      "type": "event"
    },
    {
      "anonymous": false,
      "inputs": [
        {
          "indexed": true,
          "internalType": "address",
          "name": "owner",
          "type": "address"
        },
        {
          "indexed": true,
          "internalType": "address",
          "name": "operator",
          "type": "address"
        },
        {
          "indexed": false,
          "internalType": "bool",
          "name": "approved",
          "type": "bool"
        }
      ],
      "name": "ApprovalForAll",
      "type": "event"
    },
    {
      "anonymous": false,
      "inputs": [
        {
          "indexed": true,
          "internalType": "address",
          "name": "from",
          "type": "address"
        },
        {
          "indexed": true,
          "internalType": "address",
          "name": "to",
          "type": "address"
        },
        {
          "indexed": true,
          "internalType": "uint256",
          "name": "tokenId",
          "type": "uint256"
        }
      ],
      "name": "Transfer",
      "type": "event"
    },
    {
      "inputs": [
        {
          "internalType": "uint256",
          "name": "",
          "type": "uint256"
        },
        {
          "internalType": "uint256",
          "name": "",
          "type": "uint256"
        }
      ],
      "name": "contractsOwnerList",
      "outputs": [
        {
          "internalType": "address",
          "name": "",
          "type": "address"
        }
      ],
      "stateMutability": "view",
      "type": "function"
    },
    {
      "inputs": [
        {
          "internalType": "address",
          "name": "",
          "type": "address"
        },
        {
          "internalType": "uint256",
          "name": "",
          "type": "uint256"
        }
      ],
      "name": "ownersContractList",
      "outputs": [
        {
          "internalType": "uint256",
          "name": "",
          "type": "uint256"
        }
      ],
      "stateMutability": "view",
      "type": "function"
    },
    {
      "inputs": [
        {
          "internalType": "bytes4",
          "name": "interfaceId",
          "type": "bytes4"
        }
      ],
      "name": "supportsInterface",
      "outputs": [
        {
          "internalType": "bool",
          "name": "",
          "type": "bool"
        }
      ],
      "stateMutability": "view",
      "type": "function"
    },
    {
      "inputs": [
        {
          "internalType": "address",
          "name": "_owner",
          "type": "address"
        }
      ],
      "name": "balanceOf",
      "outputs": [
        {
          "internalType": "uint256",
          "name": "balance",
          "type": "uint256"
        }
      ],
      "stateMutability": "view",
      "type": "function"
    },
    {
      "inputs": [
        {
          "internalType": "uint256",
          "name": "tokenId",
          "type": "uint256"
        }
      ],
      "name": "ownerOf",
      "outputs": [
        {
          "internalType": "address",
          "name": "_owner",
          "type": "address"
        }
      ],
      "stateMutability": "view",
      "type": "function"
    },
    {
      "inputs": [
        {
          "internalType": "address",
          "name": "from",
          "type": "address"
        },
        {
          "internalType": "address",
          "name": "to",
          "type": "address"
        },
        {
          "internalType": "uint256",
          "name": "tokenId",
          "type": "uint256"
        }
      ],
      "name": "transferFrom",
      "outputs": [],
      "stateMutability": "nonpayable",
      "type": "function"
    },
    {
      "inputs": [
        {
          "internalType": "address",
          "name": "to",
          "type": "address"
        },
        {
          "internalType": "uint256",
          "name": "tokenId",
          "type": "uint256"
        }
      ],
      "name": "approve",
      "outputs": [],
      "stateMutability": "nonpayable",
      "type": "function"
    },
    {
      "inputs": [
        {
          "internalType": "uint256",
          "name": "tokenId",
          "type": "uint256"
        }
      ],
      "name": "getApproved",
      "outputs": [
        {
          "internalType": "address",
          "name": "operator",
          "type": "address"
        }
      ],
      "stateMutability": "view",
      "type": "function"
    },
    {
      "inputs": [
        {
          "internalType": "address",
          "name": "operator",
          "type": "address"
        },
        {
          "internalType": "bool",
          "name": "_approved",
          "type": "bool"
        }
      ],
      "name": "setApprovalForAll",
      "outputs": [],
      "stateMutability": "nonpayable",
      "type": "function"
    },
    {
      "inputs": [
        {
          "internalType": "address",
          "name": "owner",
          "type": "address"
        },
        {
          "internalType": "address",
          "name": "operator",
          "type": "address"
        }
      ],
      "name": "isApprovedForAll",
      "outputs": [
        {
          "internalType": "bool",
          "name": "",
          "type": "bool"
        }
      ],
      "stateMutability": "view",
      "type": "function"
    },
    {
      "inputs": [
        {
          "internalType": "address",
          "name": "from",
          "type": "address"
        },
        {
          "internalType": "address",
          "name": "to",
          "type": "address"
        },
        {
          "internalType": "uint256",
          "name": "tokenId",
          "type": "uint256"
        }
      ],
      "name": "safeTransferFrom",
      "outputs": [],
      "stateMutability": "nonpayable",
      "type": "function"
    },
    {
      "inputs": [
        {
          "internalType": "address",
          "name": "from",
          "type": "address"
        },
        {
          "internalType": "address",
          "name": "to",
          "type": "address"
        },
        {
          "internalType": "uint256",
          "name": "tokenId",
          "type": "uint256"
        },
        {
          "internalType": "bytes",
          "name": "data",
          "type": "bytes"
        }
      ],
      "name": "safeTransferFrom",
      "outputs": [],
      "stateMutability": "nonpayable",
      "type": "function"
    },
    {
      "inputs": [
        {
          "internalType": "uint256",
          "name": "tokenId",
          "type": "uint256"
        },
        {
          "internalType": "address",
          "name": "checkOwner",
          "type": "address"
        }
      ],
      "name": "checkOwnership",
      "outputs": [
        {
          "internalType": "bool",
          "name": "",
          "type": "bool"
        }
      ],
      "stateMutability": "nonpayable",
      "type": "function"
    }
  ],
  "bytecode": "0x6080604052600080556040518060400160405280600b81526020017f574f4c5920544f4b454e5300000000000000000000000000000000000000000081525060019080519060200190620000559291906200015d565b506040518060400160405280600481526020017f574f4c590000000000000000000000000000000000000000000000000000000081525060029080519060200190620000a39291906200015d565b50348015620000b157600080fd5b506040516200151f3803806200151f8339818101604052810190620000d791906200035a565b8160059080519060200190620000ef929190620001ee565b508060078190555060008060008154809291906200010d9062000498565b91905055905033600860006101000a81548173ffffffffffffffffffffffffffffffffffffffff021916908373ffffffffffffffffffffffffffffffffffffffff160217905550505050620005cc565b8280546200016b906200042c565b90600052602060002090601f0160209004810192826200018f5760008555620001db565b82601f10620001aa57805160ff1916838001178555620001db565b82800160010185558215620001db579182015b82811115620001da578251825591602001919060010190620001bd565b5b509050620001ea919062000240565b5090565b8280548282559060005260206000209081019282156200022d579160200282015b828111156200022c5782518255916020019190600101906200020f565b5b5090506200023c91906200025f565b5090565b5b808211156200025b57600081600090555060010162000241565b5090565b5b808211156200027a57600081600090555060010162000260565b5090565b6000620002956200028f84620003e9565b620003c0565b90508083825260208201905082856020860282011115620002bb57620002ba62000578565b5b60005b85811015620002ef5781620002d488826200032c565b845260208401935060208301925050600181019050620002be565b5050509392505050565b600082601f83011262000311576200031062000573565b5b8151620003238482602086016200027e565b91505092915050565b6000815190506200033d8162000598565b92915050565b6000815190506200035481620005b2565b92915050565b6000806040838503121562000374576200037362000582565b5b600083015167ffffffffffffffff8111156200039557620003946200057d565b5b620003a385828601620002f9565b9250506020620003b68582860162000343565b9150509250929050565b6000620003cc620003df565b9050620003da828262000462565b919050565b6000604051905090565b600067ffffffffffffffff82111562000407576200040662000544565b5b602082029050602081019050919050565b6000819050919050565b6000819050919050565b600060028204905060018216806200044557607f821691505b602082108114156200045c576200045b62000515565b5b50919050565b6200046d8262000587565b810181811067ffffffffffffffff821117156200048f576200048e62000544565b5b80604052505050565b6000620004a58262000422565b91507fffffffffffffffffffffffffffffffffffffffffffffffffffffffffffffffff821415620004db57620004da620004e6565b5b600182019050919050565b7f4e487b7100000000000000000000000000000000000000000000000000000000600052601160045260246000fd5b7f4e487b7100000000000000000000000000000000000000000000000000000000600052602260045260246000fd5b7f4e487b7100000000000000000000000000000000000000000000000000000000600052604160045260246000fd5b600080fd5b600080fd5b600080fd5b600080fd5b6000601f19601f8301169050919050565b620005a38162000418565b8114620005af57600080fd5b50565b620005bd8162000422565b8114620005c957600080fd5b50565b610f4380620005dc6000396000f3fe608060405234801561001057600080fd5b50600436106100cf5760003560e01c806369aaa36d1161008c578063a22cb46511610066578063a22cb46514610248578063b88d4fde14610264578063e985e9c514610280578063fcbeb195146102b0576100cf565b806369aaa36d146101b857806370a08231146101e857806377ade19014610218576100cf565b806301ffc9a7146100d4578063081812fc14610104578063095ea7b31461013457806323b872dd1461015057806342842e0e1461016c5780636352211e14610188575b600080fd5b6100ee60048036038101906100e99190610ba8565b6102e0565b6040516100fb9190610ced565b60405180910390f35b61011e60048036038101906101199190610bd5565b6102e7565b60405161012b9190610cd2565b60405180910390f35b61014e60048036038101906101499190610b68565b610327565b005b61016a60048036038101906101659190610a4d565b610339565b005b61018660048036038101906101819190610a4d565b61033e565b005b6101a2600480360381019061019d9190610bd5565b610457565b6040516101af9190610cd2565b60405180910390f35b6101d260048036038101906101cd9190610c42565b6104c8565b6040516101df9190610cd2565b60405180910390f35b61020260048036038101906101fd91906109e0565b610516565b60405161020f9190610d28565b60405180910390f35b610232600480360381019061022d9190610c02565b6105bd565b60405161023f9190610ced565b60405180910390f35b610262600480360381019061025d9190610b28565b610748565b005b61027e60048036038101906102799190610aa0565b61074c565b005b61029a60048036038101906102959190610a0d565b6108c4565b6040516102a79190610ced565b60405180910390f35b6102ca60048036038101906102c59190610b68565b610905565b6040516102d79190610d28565b60405180910390f35b6000919050565b60008073ffffffffffffffffffffffffffffffffffffffff163373ffffffffffffffffffffffffffffffffffffffff16141561032257600080fd5b919050565b600081141561033557600080fd5b5050565b505050565b600073ffffffffffffffffffffffffffffffffffffffff168373ffffffffffffffffffffffffffffffffffffffff16141561037857600080fd5b600073ffffffffffffffffffffffffffffffffffffffff168273ffffffffffffffffffffffffffffffffffffffff1610156103b257600080fd5b600081116103bf57600080fd5b8273ffffffffffffffffffffffffffffffffffffffff163373ffffffffffffffffffffffffffffffffffffffff16146103f757600080fd5b808273ffffffffffffffffffffffffffffffffffffffff168473ffffffffffffffffffffffffffffffffffffffff167fddf252ad1be2c89b69c2b068fc378daa952ba7f163c4a11628f55a4df523b3ef60405160405180910390a4505050565b60008073ffffffffffffffffffffffffffffffffffffffff163373ffffffffffffffffffffffffffffffffffffffff16141561049257600080fd5b60006003600084815260200190815260200160002080549050146104b557600080fd5b60008210156104c357600080fd5b919050565b600360205281600052604060002081815481106104e457600080fd5b906000526020600020016000915091509054906101000a900473ffffffffffffffffffffffffffffffffffffffff1681565b60008073ffffffffffffffffffffffffffffffffffffffff163373ffffffffffffffffffffffffffffffffffffffff16141561055157600080fd5b60046000600860009054906101000a900473ffffffffffffffffffffffffffffffffffffffff1673ffffffffffffffffffffffffffffffffffffffff1673ffffffffffffffffffffffffffffffffffffffff168152602001908152602001600020805490509050919050565b6000808314156105cc57600080fd5b600073ffffffffffffffffffffffffffffffffffffffff168273ffffffffffffffffffffffffffffffffffffffff16141561060657600080fd5b60006003600085815260200190815260200160002080548060200260200160405190810160405280929190818152602001828054801561069b57602002820191906000526020600020905b8160009054906101000a900473ffffffffffffffffffffffffffffffffffffffff1673ffffffffffffffffffffffffffffffffffffffff1681526020019060010190808311610651575b505050505090506000805b600360008781526020019081526020016000208054905081101561073b5760008382815181106106d9576106d8610e40565b5b602002602001015190508573ffffffffffffffffffffffffffffffffffffffff168173ffffffffffffffffffffffffffffffffffffffff161415610727576001925082945050505050610742565b50808061073390610dc8565b9150506106a6565b5080925050505b92915050565b5050565b600073ffffffffffffffffffffffffffffffffffffffff168573ffffffffffffffffffffffffffffffffffffffff1614156107bc576040517f08c379a00000000000000000000000000000000000000000000000000000000081526004016107b390610d08565b60405180910390fd5b600073ffffffffffffffffffffffffffffffffffffffff168473ffffffffffffffffffffffffffffffffffffffff16141561082c576040517f08c379a000000000000000000000000000000000000000000000000000000000815260040161082390610d08565b60405180910390fd5b600060036000858152602001908152602001600020805490501161084f57600080fd5b61085983866105bd565b61086257600080fd5b828473ffffffffffffffffffffffffffffffffffffffff168673ffffffffffffffffffffffffffffffffffffffff167fddf252ad1be2c89b69c2b068fc378daa952ba7f163c4a11628f55a4df523b3ef60405160405180910390a45050505050565b60008273ffffffffffffffffffffffffffffffffffffffff163373ffffffffffffffffffffffffffffffffffffffff1614156108ff57600080fd5b92915050565b6004602052816000526040600020818154811061092157600080fd5b90600052602060002001600091509150505481565b60008135905061094581610eb1565b92915050565b60008135905061095a81610ec8565b92915050565b60008135905061096f81610edf565b92915050565b60008083601f84011261098b5761098a610e74565b5b8235905067ffffffffffffffff8111156109a8576109a7610e6f565b5b6020830191508360018202830111156109c4576109c3610e79565b5b9250929050565b6000813590506109da81610ef6565b92915050565b6000602082840312156109f6576109f5610e83565b5b6000610a0484828501610936565b91505092915050565b60008060408385031215610a2457610a23610e83565b5b6000610a3285828601610936565b9250506020610a4385828601610936565b9150509250929050565b600080600060608486031215610a6657610a65610e83565b5b6000610a7486828701610936565b9350506020610a8586828701610936565b9250506040610a96868287016109cb565b9150509250925092565b600080600080600060808688031215610abc57610abb610e83565b5b6000610aca88828901610936565b9550506020610adb88828901610936565b9450506040610aec888289016109cb565b935050606086013567ffffffffffffffff811115610b0d57610b0c610e7e565b5b610b1988828901610975565b92509250509295509295909350565b60008060408385031215610b3f57610b3e610e83565b5b6000610b4d85828601610936565b9250506020610b5e8582860161094b565b9150509250929050565b60008060408385031215610b7f57610b7e610e83565b5b6000610b8d85828601610936565b9250506020610b9e858286016109cb565b9150509250929050565b600060208284031215610bbe57610bbd610e83565b5b6000610bcc84828501610960565b91505092915050565b600060208284031215610beb57610bea610e83565b5b6000610bf9848285016109cb565b91505092915050565b60008060408385031215610c1957610c18610e83565b5b6000610c27858286016109cb565b9250506020610c3885828601610936565b9150509250929050565b60008060408385031215610c5957610c58610e83565b5b6000610c67858286016109cb565b9250506020610c78858286016109cb565b9150509250929050565b610c8b81610d54565b82525050565b610c9a81610d66565b82525050565b6000610cad601f83610d43565b9150610cb882610e88565b602082019050919050565b610ccc81610dbe565b82525050565b6000602082019050610ce76000830184610c82565b92915050565b6000602082019050610d026000830184610c91565b92915050565b60006020820190508181036000830152610d2181610ca0565b9050919050565b6000602082019050610d3d6000830184610cc3565b92915050565b600082825260208201905092915050565b6000610d5f82610d9e565b9050919050565b60008115159050919050565b60007fffffffff0000000000000000000000000000000000000000000000000000000082169050919050565b600073ffffffffffffffffffffffffffffffffffffffff82169050919050565b6000819050919050565b6000610dd382610dbe565b91507fffffffffffffffffffffffffffffffffffffffffffffffffffffffffffffffff821415610e0657610e05610e11565b5b600182019050919050565b7f4e487b7100000000000000000000000000000000000000000000000000000000600052601160045260246000fd5b7f4e487b7100000000000000000000000000000000000000000000000000000000600052603260045260246000fd5b600080fd5b600080fd5b600080fd5b600080fd5b600080fd5b7f66726f6d2063616e6e6f7420626520746865207a65726f206164647265737300600082015250565b610eba81610d54565b8114610ec557600080fd5b50565b610ed181610d66565b8114610edc57600080fd5b50565b610ee881610d72565b8114610ef357600080fd5b50565b610eff81610dbe565b8114610f0a57600080fd5b5056fea2646970667358221220df2ecef416d547c308f96863c672beb6cdff123267af606a9f98708bd49dbb8964736f6c63430008070033",
  "immutableReferences": {},
  "source": "// contracts/Contract.sol\r\n// SPDX-License-Identifier: MIT\r\npragma solidity ^0.8.0;\r\n\r\nimport \"../client/node_modules/@openzeppelin/contracts/token/ERC721/IERC721.sol\";\r\n\r\n/// @title Off-chain Contract\r\n/// @author NdrsLmpk\r\n/// @notice This contract serves as a standard for the creation of an Off-chain contract. It allows the project to define a derivative, an Letter of Credit (see LetterOfCredit.sol), using this contract as an NFT.\r\n/// @dev ERC-721 Interface is implemented. Explain to a developer any extra details -- TBD\r\n\r\ncontract OffchainContract is IERC721 {\r\n    // STATE VARIABLE\r\n    uint256 CONTRACT_SERIAL_NUMBER = 0;\r\n    string tokenName = \"WOLY TOKENS\";\r\n    string tokenSymbol = \"WOLY\";\r\n\r\n    /// @notice Data\r\n    /// @notice contractsOwnerList contains the contractId and maps to its owners\r\n    /// @notice Data\r\n\r\n    mapping(uint256 => address[]) public contractsOwnerList; // allows to index the contracts owners\r\n    mapping(address => uint256[]) public ownersContractList; // allows to display\r\n    bytes32[] name;\r\n    string symbol;\r\n    uint256 value;\r\n    address contractOwner;\r\n\r\n    constructor(bytes32[] memory _name, uint256 _value) {\r\n        name = _name;\r\n        value = _value; // Contract Value\r\n        uint256 tokenId = CONTRACT_SERIAL_NUMBER++; //  sets the new tokenId and increments the SERIAL_NUMBER for the next contract\r\n        contractOwner = msg.sender;\r\n    }\r\n\r\n    /**\r\n     *  ERC165 Functions\r\n     */\r\n\r\n    function supportsInterface(bytes4 interfaceId)\r\n        external\r\n        view\r\n        override\r\n        returns (bool)\r\n    {}\r\n\r\n    /**\r\n     *  ERC721 Functions\r\n     */\r\n\r\n    function balanceOf(address _owner)\r\n        external\r\n        view\r\n        override\r\n        returns (uint256 balance)\r\n    {\r\n        require(msg.sender != address(0));\r\n\r\n        return ownersContractList[contractOwner].length;\r\n    }\r\n\r\n    function ownerOf(uint256 tokenId)\r\n        external\r\n        view\r\n        override\r\n        returns (address _owner)\r\n    {\r\n        require(msg.sender != address(0));\r\n        require(contractsOwnerList[tokenId].length == 0);\r\n        require(tokenId >= 0);\r\n    }\r\n\r\n    function safeTransferFrom(\r\n        address from,\r\n        address to,\r\n        uint256 tokenId\r\n    ) external override {\r\n        require(from != address(0));\r\n        require(to >= address(0));\r\n        require(tokenId > 0);\r\n        //requiring msg.sender to be the same person as the from transfer\r\n        // Todo: It needs to be allowed to transfer tokens on the behalf of somebody else\r\n        require(msg.sender == from);\r\n        // require(msg.sender == contractsOwnerList[tokenId]); //checks whether the requested tokenId has an owner with the sender's address\r\n\r\n        emit Transfer(from, to, tokenId);\r\n    }\r\n\r\n    function transferFrom(\r\n        address from,\r\n        address to,\r\n        uint256 tokenId\r\n    ) external override {}\r\n\r\n    function approve(address to, uint256 tokenId) external override {\r\n        require(tokenId != 0);\r\n    }\r\n\r\n    function getApproved(uint256 tokenId)\r\n        external\r\n        view\r\n        override\r\n        returns (address operator)\r\n    {\r\n        require(msg.sender != operator);\r\n    }\r\n\r\n    function setApprovalForAll(address operator, bool _approved)\r\n        external\r\n        override\r\n    {}\r\n\r\n    function isApprovedForAll(address owner, address operator)\r\n        external\r\n        view\r\n        override\r\n        returns (bool)\r\n    {\r\n        require(msg.sender != owner);\r\n    }\r\n\r\n    function safeTransferFrom(\r\n        address from,\r\n        address to,\r\n        uint256 tokenId,\r\n        bytes calldata data\r\n    ) external override {\r\n        require(from != address(0), \"from cannot be the zero address\");\r\n        require(to != address(0), \"from cannot be the zero address\");\r\n        require(contractsOwnerList[tokenId].length > 0);\r\n        require(checkOwnership(tokenId, from));\r\n        emit Transfer(from, to, tokenId);\r\n    }\r\n\r\n    function checkOwnership(uint256 tokenId, address checkOwner)\r\n        public\r\n        returns (bool)\r\n    {\r\n        require(tokenId != 0);\r\n        require(checkOwner != address(0));\r\n        address[] memory _owners = contractsOwnerList[tokenId];\r\n        bool isOwner = false;\r\n\r\n        // Checks whether the transmitted person is owner of the token\r\n        for (uint256 i = 0; i < contractsOwnerList[tokenId].length; i++) {\r\n            address _addr = _owners[i];\r\n            if (_addr == checkOwner) {\r\n                isOwner = true;\r\n                return isOwner;\r\n            }\r\n        }\r\n\r\n        return isOwner;\r\n    }\r\n}\r\n",
  "sourcePath": "C:\\Projects\\woly\\eth-detrafin-test-truffle-box\\contracts\\OffchainContract.sol",
  "compiler": {
    "name": "solc",
    "version": "0.8.7+commit.e28d00a7.Emscripten.clang"
  },
  "schemaVersion": "3.4.2",
  "updatedAt": "2021-09-25T15:37:44.187Z",
  "devdoc": {
    "author": "NdrsLmpk",
    "details": "ERC-721 Interface is implemented. Explain to a developer any extra details -- TBD",
    "kind": "dev",
    "methods": {
      "approve(address,uint256)": {
        "details": "Gives permission to `to` to transfer `tokenId` token to another account. The approval is cleared when the token is transferred. Only a single account can be approved at a time, so approving the zero address clears previous approvals. Requirements: - The caller must own the token or be an approved operator. - `tokenId` must exist. Emits an {Approval} event."
      },
      "getApproved(uint256)": {
        "details": "Returns the account approved for `tokenId` token. Requirements: - `tokenId` must exist."
      },
      "isApprovedForAll(address,address)": {
        "details": "Returns if the `operator` is allowed to manage all of the assets of `owner`. See {setApprovalForAll}"
      },
      "ownerOf(uint256)": {
        "details": "Returns the owner of the `tokenId` token. Requirements: - `tokenId` must exist."
      },
      "safeTransferFrom(address,address,uint256)": {
        "details": "Safely transfers `tokenId` token from `from` to `to`, checking first that contract recipients are aware of the ERC721 protocol to prevent tokens from being forever locked. Requirements: - `from` cannot be the zero address. - `to` cannot be the zero address. - `tokenId` token must exist and be owned by `from`. - If the caller is not `from`, it must be have been allowed to move this token by either {approve} or {setApprovalForAll}. - If `to` refers to a smart contract, it must implement {IERC721Receiver-onERC721Received}, which is called upon a safe transfer. Emits a {Transfer} event."
      },
      "safeTransferFrom(address,address,uint256,bytes)": {
        "details": "Safely transfers `tokenId` token from `from` to `to`. Requirements: - `from` cannot be the zero address. - `to` cannot be the zero address. - `tokenId` token must exist and be owned by `from`. - If the caller is not `from`, it must be approved to move this token by either {approve} or {setApprovalForAll}. - If `to` refers to a smart contract, it must implement {IERC721Receiver-onERC721Received}, which is called upon a safe transfer. Emits a {Transfer} event."
      },
      "setApprovalForAll(address,bool)": {
        "details": "Approve or remove `operator` as an operator for the caller. Operators can call {transferFrom} or {safeTransferFrom} for any token owned by the caller. Requirements: - The `operator` cannot be the caller. Emits an {ApprovalForAll} event."
      },
      "transferFrom(address,address,uint256)": {
        "details": "Transfers `tokenId` token from `from` to `to`. WARNING: Usage of this method is discouraged, use {safeTransferFrom} whenever possible. Requirements: - `from` cannot be the zero address. - `to` cannot be the zero address. - `tokenId` token must be owned by `from`. - If the caller is not `from`, it must be approved to move this token by either {approve} or {setApprovalForAll}. Emits a {Transfer} event."
      }
    },
    "title": "Off-chain Contract",
    "version": 1
  },
  "userdoc": {
    "kind": "user",
    "methods": {
      "balanceOf(address)": {
        "notice": "ERC721 Functions"
      },
      "contractsOwnerList(uint256,uint256)": {
        "notice": "DatacontractsOwnerList contains the contractId and maps to its ownersData"
      },
      "supportsInterface(bytes4)": {
        "notice": "ERC165 Functions"
      }
    },
    "notice": "This contract serves as a standard for the creation of an Off-chain contract. It allows the project to define a derivative, an Letter of Credit (see LetterOfCredit.sol), using this contract as an NFT.",
    "version": 1
  }
}